{
  "contractName": "Coinflip",
  "abi": [
    {
      "constant": true,
      "inputs": [],
      "name": "balance",
      "outputs": [
        {
          "internalType": "uint256",
          "name": "",
          "type": "uint256"
        }
      ],
      "payable": false,
      "stateMutability": "view",
      "type": "function"
    },
    {
      "constant": false,
      "inputs": [],
      "name": "close",
      "outputs": [],
      "payable": false,
      "stateMutability": "nonpayable",
      "type": "function"
    },
    {
      "constant": true,
      "inputs": [
        {
          "internalType": "uint256",
          "name": "",
          "type": "uint256"
        }
      ],
      "name": "messages",
      "outputs": [
        {
          "internalType": "string",
          "name": "",
          "type": "string"
        }
      ],
      "payable": false,
      "stateMutability": "view",
      "type": "function"
    },
    {
      "constant": false,
      "inputs": [
        {
          "internalType": "uint256",
          "name": "headsOrTails",
          "type": "uint256"
        }
      ],
      "name": "flipCoin",
      "outputs": [
        {
          "internalType": "string",
          "name": "",
          "type": "string"
        }
      ],
      "payable": true,
      "stateMutability": "payable",
      "type": "function"
    },
    {
      "constant": true,
      "inputs": [],
      "name": "random",
      "outputs": [
        {
          "internalType": "uint256",
          "name": "",
          "type": "uint256"
        }
      ],
      "payable": false,
      "stateMutability": "view",
      "type": "function"
    },
    {
      "constant": false,
      "inputs": [
        {
          "internalType": "uint256",
          "name": "balanceToTransfer",
          "type": "uint256"
        }
      ],
      "name": "withdrawFunds",
      "outputs": [],
      "payable": false,
      "stateMutability": "nonpayable",
      "type": "function"
    },
    {
      "constant": false,
      "inputs": [],
      "name": "topUpContract",
      "outputs": [
        {
          "internalType": "string",
          "name": "",
          "type": "string"
        }
      ],
      "payable": true,
      "stateMutability": "payable",
      "type": "function"
    },
    {
      "constant": true,
      "inputs": [],
      "name": "getContractBalance",
      "outputs": [
        {
          "internalType": "uint256",
          "name": "",
          "type": "uint256"
        }
      ],
      "payable": false,
      "stateMutability": "view",
      "type": "function"
    }
  ],
  "bytecode": "0x608060405260405180604001604052806040518060400160405280600b81526020017f596f75206c6f73742e2e2e00000000000000000000000000000000000000000081525081526020016040518060400160405280600881526020017f596f7520776f6e21000000000000000000000000000000000000000000000000815250815250600290600262000095929190620000dc565b50336000806101000a81548173ffffffffffffffffffffffffffffffffffffffff021916908373ffffffffffffffffffffffffffffffffffffffff1602179055506200026f565b82805482825590600052602060002090810192821562000130579160200282015b828111156200012f5782518290805190602001906200011e92919062000143565b5091602001919060010190620000fd565b5b5090506200013f9190620001ca565b5090565b828054600181600116156101000203166002900490600052602060002090601f016020900481019282601f106200018657805160ff1916838001178555620001b7565b82800160010185558215620001b7579182015b82811115620001b657825182559160200191906001019062000199565b5b509050620001c69190620001fb565b5090565b620001f891905b80821115620001f45760008181620001ea919062000223565b50600101620001d1565b5090565b90565b6200022091905b808211156200021c57600081600090555060010162000202565b5090565b90565b50805460018160011615610100020316600290046000825580601f106200024b57506200026c565b601f0160209004906000526020600020908101906200026b9190620001fb565b5b50565b610a96806200027f6000396000f3fe60806040526004361061007b5760003560e01c80635f5be1f41161004e5780635f5be1f4146101b15780636f9fb98a146102585780639b3b20d114610283578063b69ef8a8146103065761007b565b80630d80fefd14610080578063155dd5ee1461013457806343d726d61461016f5780635ec01e4d14610186575b600080fd5b34801561008c57600080fd5b506100b9600480360360208110156100a357600080fd5b8101908080359060200190929190505050610331565b6040518080602001828103825283818151815260200191508051906020019080838360005b838110156100f95780820151818401526020810190506100de565b50505050905090810190601f1680156101265780820380516001836020036101000a031916815260200191505b509250505060405180910390f35b34801561014057600080fd5b5061016d6004803603602081101561015757600080fd5b81019080803590602001909291905050506103ea565b005b34801561017b57600080fd5b50610184610514565b005b34801561019257600080fd5b5061019b610588565b6040518082815260200191505060405180910390f35b6101dd600480360360208110156101c757600080fd5b810190808035906020019092919050505061059a565b6040518080602001828103825283818151815260200191508051906020019080838360005b8381101561021d578082015181840152602081019050610202565b50505050905090810190601f16801561024a5780820380516001836020036101000a031916815260200191505b509250505060405180910390f35b34801561026457600080fd5b5061026d61095c565b6040518082815260200191505060405180910390f35b61028b6109bf565b6040518080602001828103825283818151815260200191508051906020019080838360005b838110156102cb5780820151818401526020810190506102b0565b50505050905090810190601f1680156102f85780820380516001836020036101000a031916815260200191505b509250505060405180910390f35b34801561031257600080fd5b5061031b610a0c565b6040518082815260200191505060405180910390f35b6002818154811061033e57fe5b906000526020600020016000915090508054600181600116156101000203166002900480601f0160208091040260200160405190810160405280929190818152602001828054600181600116156101000203166002900480156103e25780601f106103b7576101008083540402835291602001916103e2565b820191906000526020600020905b8154815290600101906020018083116103c557829003601f168201915b505050505081565b6000809054906101000a900473ffffffffffffffffffffffffffffffffffffffff1673ffffffffffffffffffffffffffffffffffffffff163373ffffffffffffffffffffffffffffffffffffffff161461044357600080fd5b60015481106104ba576040517f08c379a000000000000000000000000000000000000000000000000000000000815260040180806020018281038252601d8152602001807f596f752063616e27742077697468647261772074686174206d7563682100000081525060200191505060405180910390fd5b806001600082825403925050819055503373ffffffffffffffffffffffffffffffffffffffff166108fc829081150290604051600060405180830381858888f19350505050158015610510573d6000803e3d6000fd5b5050565b6000809054906101000a900473ffffffffffffffffffffffffffffffffffffffff1673ffffffffffffffffffffffffffffffffffffffff163373ffffffffffffffffffffffffffffffffffffffff161461056d57600080fd5b60008073ffffffffffffffffffffffffffffffffffffffff16ff5b60006002428161059457fe5b06905090565b6060662386f26fc100008034101561061a576040517f08c379a00000000000000000000000000000000000000000000000000000000081526004018080602001828103825260208152602001807f596f75206d75737420626574206174206c6561737420302e303120657468657281525060200191505060405180910390fd5b600154803460020210610678576040517f08c379a000000000000000000000000000000000000000000000000000000000815260040180806020018281038252602e815260200180610a34602e913960400191505060405180910390fd5b60008414806106875750600184145b6106f9576040517f08c379a000000000000000000000000000000000000000000000000000000000815260040180806020018281038252601c8152602001807f436f696e20666c6970206973206e6569746865722030206e6f7220310000000081525060200191505060405180910390fd5b60003390508073ffffffffffffffffffffffffffffffffffffffff163134111561076e576040517f08c379a0000000000000000000000000000000000000000000000000000000008152600401808060200182810382526021815260200180610a136021913960400191505060405180910390fd5b610776610588565b85141561089057346001600082825403925050819055503373ffffffffffffffffffffffffffffffffffffffff166108fc346002029081150290604051600060405180830381858888f193505050501580156107d6573d6000803e3d6000fd5b5060026001815481106107e557fe5b906000526020600020018054600181600116156101000203166002900480601f0160208091040260200160405190810160405280929190818152602001828054600181600116156101000203166002900480156108835780601f1061085857610100808354040283529160200191610883565b820191906000526020600020905b81548152906001019060200180831161086657829003601f168201915b5050505050935050610955565b3460016000828254019250508190555060026000815481106108ae57fe5b906000526020600020018054600181600116156101000203166002900480601f01602080910402602001604051908101604052809291908181526020018280546001816001161561010002031660029004801561094c5780601f106109215761010080835404028352916020019161094c565b820191906000526020600020905b81548152906001019060200180831161092f57829003601f168201915b50505050509350505b5050919050565b60008060009054906101000a900473ffffffffffffffffffffffffffffffffffffffff1673ffffffffffffffffffffffffffffffffffffffff163373ffffffffffffffffffffffffffffffffffffffff16146109b757600080fd5b600154905090565b6060346001600082825401925050819055506040518060400160405280601b81526020017f5468616e6b7320666f7220796f75722067656e65726f73697479210000000000815250905090565b6001548156fe596f752063616e277420626574206d6f7265207468616e20796f75206861766521596f75722062657420697320686967686572207468616e207468697320636f6e747261637427732076616c756521a265627a7a72315820c29a63d6313a1d0e16a8ec08a4245047a23d24d6e5c380c0bc549e6e49ece56564736f6c63430005100032",
  "source": "// SPDX-License-Identifier: UNLICENSED;\r\nimport\"./Ownable.sol\";\r\nimport\"./Selfdestructable.sol\";\r\npragma solidity >= 0.5.16 <0.7.0;\r\n\r\ncontract Coinflip is Ownable, Selfdestructable{\r\n\r\n    uint public balance;\r\n\r\n    string[] public messages = [\"You lost...\", \"You won!\"];\r\n\r\n    //struct Better {\r\n    //    string playerId;\r\n    //    uint age;\r\n    //    uint betAmount;\r\n    //    address walletAddress;\r\n    //}\r\n\r\n    modifier costs(uint cost){\r\n        require(msg.value >= cost, \"You must bet at least 0.01 ether\");\r\n        _;\r\n    }\r\n\r\n    modifier lessThanBalance(uint value){\r\n        require(2 * msg.value < value, \"Your bet is higher than this contract's value!\");\r\n        _;\r\n    }\r\n\r\n    //mapping(address => Better) public betters;\r\n\r\n    function flipCoin(uint headsOrTails) public payable costs(0.01 ether) lessThanBalance(balance) returns(string memory) {\r\n        // Heads = 1, Tails = 0\r\n        require(headsOrTails == 0 || headsOrTails == 1, \"Coin flip is neither 0 nor 1\");\r\n        address gambler = msg.sender;\r\n        require(msg.value <= gambler.balance, \"You can't bet more than you have!\");\r\n        if(headsOrTails == random()){\r\n            balance -= msg.value;\r\n            msg.sender.transfer(2 * msg.value);\r\n            return messages[1];\r\n        }\r\n        else{\r\n            balance += msg.value;\r\n            return messages[0];\r\n        }\r\n    }\r\n\r\n    function random() public view returns(uint) {\r\n        return block.timestamp % 2;\r\n    }\r\n\r\n    //function randomOutput(uint latestTimestamp) internal returns(uint) {\r\n    //    latestTimestamp = random();\r\n    //    return latestTimestamp;\r\n    //}\r\n\r\n    function withdrawFunds(uint256 balanceToTransfer) public onlyOwner {\r\n        require(balanceToTransfer < balance, \"You can't withdraw that much!\");\r\n        balance -= balanceToTransfer;\r\n        msg.sender.transfer(balanceToTransfer);\r\n    }\r\n\r\n    function topUpContract() public payable returns(string memory){\r\n        balance += msg.value;\r\n        return string(\"Thanks for your generosity!\");\r\n    }\r\n\r\n    function getContractBalance() public view onlyOwner returns(uint) {\r\n        return balance;\r\n    }\r\n\r\n\r\n\r\n}\r\n",
  "sourcePath": "C:/Users/I_Ben/Documents/Blockchain Programming/Ethereum Smart Contract Programming 201/Coinflip/Coinflip_Dapp/contracts/Coinflip.sol",
  "compiler": {
    "name": "solc",
    "version": "0.5.16+commit.9c3226ce.Emscripten.clang"
  },
  "schemaVersion": "3.2.3",
  "updatedAt": "2020-08-29T19:08:26.345Z",
  "networkType": "ethereum",
  "devdoc": {
    "methods": {}
  },
  "userdoc": {
    "methods": {}
  }
}