{
  "contractName": "Selfdestructable",
  "abi": [
    {
      "constant": false,
      "inputs": [],
      "name": "close",
      "outputs": [],
      "payable": false,
      "stateMutability": "nonpayable",
      "type": "function"
    }
  ],
  "bytecode": "0x6080604052336000806101000a81548173ffffffffffffffffffffffffffffffffffffffff021916908373ffffffffffffffffffffffffffffffffffffffff16021790555060dd806100526000396000f3fe6080604052348015600f57600080fd5b506004361060285760003560e01c806343d726d614602d575b600080fd5b60336035565b005b6000809054906101000a900473ffffffffffffffffffffffffffffffffffffffff1673ffffffffffffffffffffffffffffffffffffffff163373ffffffffffffffffffffffffffffffffffffffff1614608d57600080fd5b60008073ffffffffffffffffffffffffffffffffffffffff16fffea265627a7a72315820c514dacd592f1b5270b5269c7ebb6db2d2986e24b3b7ed446de8259a176b522664736f6c63430005100032",
  "source": "// SPDX-License-Identifier: UNLICENSED;\r\nimport\"./Ownable.sol\";\r\npragma solidity >= 0.5.16 <0.7.0;\r\n\r\ncontract Selfdestructable is Ownable{\r\n    function close() public onlyOwner{\r\n        address payable owner;\r\n        selfdestruct(owner);\r\n    }\r\n}\r\n",
  "sourcePath": "C:\\Users\\I_Ben\\Documents\\Blockchain Programming\\Ethereum Smart Contract Programming 201\\Coinflip\\Coinflip_Dapp\\contracts\\Selfdestructable.sol",
  "compiler": {
    "name": "solc",
    "version": "0.5.16+commit.9c3226ce.Emscripten.clang"
  },
  "schemaVersion": "3.2.3",
  "updatedAt": "2020-08-29T19:08:27.231Z",
  "networkType": "ethereum",
  "devdoc": {
    "methods": {}
  },
  "userdoc": {
    "methods": {}
  }
}